:020000040800F2
:1000000000080020B90300088103000887030008E6
:1000100000000000000000000000000000000000E0
:100020000000000000000000000000008D03000838
:10003000000000000000000097030008A103000872
:1000400039040008000000003904000839040008E1
:10005000390400083904000839040008390400088C
:1000600000000000390400083904000839040008C1
:1000700039040008390400080000000039040008B1
:100080000000000000000000000000000000000070
:1000900039040008000000000000000039040008D6
:1000A000000000003904000800000000000000000B
:1000B00039040008390400080000000000000000B6
:1000C00010B5064C2378002B07D1054B002B02D02E
:1000D000044800E000BF0123237010BD040000208D
:1000E00000000000A8040008044B10B5002B03D04A
:1000F0000349044800E000BF10BDC04600000000F6
:1001000008000020A804000880B582B000AF624B50
:100110001A68614B01210A431A60C0465E4B1B6896
:1001200004221340FAD05C4BDA685B4B01210A438E
:10013000DA60594BDA6A584B01210A43DA62564BAE
:10014000DA6A554B04210A43DA62A023DB051A68F8
:10015000A023DB0503218A431A60A023DB051A686C
:10016000A023DB0502210A431A60A023DB051A68DD
:10017000A023DB050C218A431A60A023DB051A6843
:10018000A023DB0508210A431A60A023DB051A68B7
:10019000A023DB0530218A431A60A023DB051A68FF
:1001A000A023DB0520210A431A60A023DB051A687F
:1001B000A023DB05C0218A431A60A023DB051A684F
:1001C000A023DB0580210A431A60A023DB051A6AFD
:1001D000A023DB0502210A431A62A023DB051A6A69
:1001E000A023DB0520210A431A62A023DB051A6A3B
:1001F000A023DB05802189000A431A62A023DB05C6
:100200001A6AA023DB05802189010A431A62234B65
:100210001A68224B920092081A60204B1A681F4BF2
:100220008021C9050A431A6000F03CF88023DB05F1
:100230001A688023DB0501210A431A608023DB054D
:10024000B922D2001A64154B9A69144B8021090215
:100250000A439A6100237B6002E07B6801337B6084
:100260007B680F4A9342F8DD8023DB05C822D20069
:100270001A640A4B9A6A094B802109020A439A625E
:1002800000233B6002E03B6801333B603B68044A6B
:100290009342F8DDD2E7C04600100240000800504B
:1002A0000F27000080B500AF2F4B9A6B2E4B01211A
:1002B0000A439A638023DB050F229A628023DB05C1
:1002C0002A4ADA628023DB05294A5A638023DB0548
:1002D000284A9A638023DB05274ADA638023DB05FB
:1002E0009A698023DB0560210A439A618023DB053C
:1002F0009A698023DB05C021C9010A439A618023E2
:10030000DB05DA698023DB0560210A43DA6180239B
:10031000DB05DA698023DB05C021C9010A43DA6104
:100320008023DB051A6A8023DB0514490A431A621D
:100330008023DB051A688023DB0580210A431A60CD
:100340008023DB055A698023DB0501210A435A61BA
:100350008023DB051A688023DB0501210A431A602C
:10036000C046BD4680BDC046001002401F4E000082
:100370008813000010270000983A000011110000B7
:1003800080B500AFFEE780B500AFFEE780B500AFF7
:10039000C046BD4680BD80B500AFC046BD4680BDED
:1003A00080B500AF00F04AF8C046BD4680BD80B5BC
:1003B00000AFC046BD4680BD13488546FFF7F7FF36
:1003C00012480168090E124A914205D1114812499A
:1003D000016012481249016012481349134A002370
:1003E00002E0D458C4500433C4188C42F9D3104AE4
:1003F000104C002301E013600432A242FBD300F052
:100400002FF8FFF781FEFEE700080020040000003F
:100410001F000000341002400100000000000140F5
:10042000000000000000002004000020C8040008B4
:100430000400002024000020FEE7000080B500AF8B
:10044000054B1B781A00054B1B68D218034B1A602A
:10045000C046BD4680BDC0460000002020000020F0
:1004600070B500260C4C0D4D641BA410A64209D19A
:10047000002600F019F80A4C0A4D641BA410A6428D
:1004800005D170BDB300EB5898470136EEE7B300D5
:10049000EB5898470136F2E7C0040008C004000892
:1004A000C4040008C0040008F8B5C046F8BC08BC85
:1004B0009E467047F8B5C046F8BC08BC9E467047DB
:0404C000E900000847
:0404C400C10000086B
:0404C800010000002F
:04000005080003B933
:00000001FF
