:020000040800F2
:1000000000080020652B00082D2B0008332B00086A
:1000100000000000000000000000000000000000E0
:10002000000000000000000000000000392B000864
:100030000000000000000000432B00084D2B0008CA
:10004000E52B000800000000E52B0008E52B000868
:10005000E52B0008E52B0008E52B0008D526000855
:1000600000000000E52B0008E52B0008E52B000848
:10007000E52B0008E52B000800000000E52B000838
:100080000000000000000000000000000000000070
:10009000112600080000000000000000C92600082A
:1000A00000000000E52B0008000000000000000038
:1000B000E52B0008E52B0008000000000000000010
:1000C00010B5064C2378002B07D1054B002B02D02E
:1000D000044800E000BF0123237010BD0800002089
:1000E00000000000603C0008044B10B5002B03D05A
:1000F0000349044800E000BF10BDC04600000000F6
:100100000C000020603C0008002243088B4274D39E
:1001100003098B425FD3030A8B4244D3030B8B4208
:1001200028D3030C8B420DD3FF22090212BA030C11
:100130008B4202D31212090265D0030B8B4219D3F2
:1001400000E0090AC30B8B4201D3CB03C01A524112
:10015000830B8B4201D38B03C01A5241430B8B425A
:1001600001D34B03C01A5241030B8B4201D30B0343
:10017000C01A5241C30A8B4201D3CB02C01A52416A
:10018000830A8B4201D38B02C01A5241430A8B422D
:1001900001D34B02C01A5241030A8B4201D30B0216
:1001A000C01A5241CDD2C3098B4201D3CB01C01A30
:1001B000524183098B4201D38B01C01A524143093A
:1001C0008B4201D34B01C01A524103098B4201D328
:1001D0000B01C01A5241C3088B4201D3CB00C01A95
:1001E000524183088B4201D38B00C01A524143080D
:1001F0008B4201D34B00C01A5241411A00D2014632
:10020000524110467047FFE701B5002000F0F0F8BA
:1002100002BDC0460029F7D076E7704703460B437E
:100220007FD4002243088B4274D303098B425FD3EF
:10023000030A8B4244D3030B8B4228D3030C8B421B
:100240000DD3FF22090212BA030C8B4202D3121201
:10025000090265D0030B8B4219D300E0090AC30BD6
:100260008B4201D3CB03C01A5241830B8B4201D383
:100270008B03C01A5241430B8B4201D34B03C01A6C
:100280005241030B8B4201D30B03C01A5241C30AE4
:100290008B4201D3CB02C01A5241830A8B4201D355
:1002A0008B02C01A5241430A8B4201D34B02C01A3F
:1002B0005241030A8B4201D30B02C01A5241CDD2E4
:1002C000C3098B4201D3CB01C01A524183098B422F
:1002D00001D38B01C01A524143098B4201D34B0118
:1002E000C01A524103098B4201D30B01C01A52417B
:1002F000C3088B4201D3CB00C01A524183088B4202
:1003000001D38B00C01A524143088B4201D34B00EA
:10031000C01A5241411A00D201465241104670475C
:100320005DE0CA0F00D04942031000D34042534061
:1003300000229C4603098B422DD3030A8B4212D321
:10034000FC22890112BA030A8B420CD38901921153
:100350008B4208D3890192118B4204D389013AD090
:10036000921100E08909C3098B4201D3CB01C01A65
:10037000524183098B4201D38B01C01A5241430978
:100380008B4201D34B01C01A524103098B4201D366
:100390000B01C01A5241C3088B4201D3CB00C01AD3
:1003A000524183088B4201D38B00C01A5241D9D2EB
:1003B00043088B4201D34B00C01A5241411A00D26C
:1003C0000146634652415B10104601D34042002B68
:1003D00000D54942704763465B1000D3404201B5E7
:1003E000002000F005F802BD0029F8D016E770479C
:1003F0007047C0468446100062468C46190063462A
:1004000000E0C0461FB500F047FF002801D40021DE
:10041000C8421FBD10B500F097FE4042013010BD2C
:1004200010B500F039FF002801DB002010BD0120CD
:1004300010BDC04610B500F02FFF002801DD0020E0
:1004400010BD012010BDC04610B500F0BFFE002851
:1004500001DC002010BD012010BDC04610B500F029
:10046000B5FE002801DA002010BD012010BDC046F5
:1004700070B500220C4B04000D00FFF7EFFF0028C1
:1004800004D12000290001F0AFFD70BD064B002211
:100490002000290001F026FA01F0A6FD80231B06AA
:1004A0009C466044F1E7C0460000E041F0B54F468D
:1004B0004646D6460400C0B51F000B0310004E0090
:1004C0005B0ACD0F610F7A001943E3003C03FF0F75
:1004D000BC46640A470F2743760D520DC000B9464B
:1004E0008046B71A654500D19BE0002F00DC84E010
:1004F000002A00D1BEE0C84A964200D124E1802201
:100500004C4612041443A146382F00DD67E11F2F2B
:1005100000DDD6E120224C46D21B9440A246444640
:10052000FC4020005446044340469040421E904107
:100530004A46FA400443891A1C1BA3429241524284
:100540008B1A9A4653461B0200D4D4E053465A02F3
:10055000530A9A465346002B00D104E1504601F05D
:10056000A9FD0300083B20222000D21A5146D040AA
:10057000994002009C400A43B34200DA02E19B1B0F
:10058000591C1F2900DDA7E02023100026005B1A5C
:100590009C409840CE40CA40631E9C4130439246E6
:1005A00000260443630709D00F232340042B05D002
:1005B000231DA342A4416442A2441C0053461B02D3
:1005C00000D49BE0944B01369E4200D1B8E05346E4
:1005D0009249E4080B4019005B07234372054C0263
:1005E000240B520D1205ED0722432A431800110077
:1005F000E0BCBA46B146A846F0BD002F48D0971BD4
:10060000002E00D00EE10C001C4300D1B7E17C1E8F
:10061000012F00D126E2804DAF4200D1D5E1270065
:1006200007E1002F00DCB2E0002A47D07A4A964268
:1006300000D189E080224C4612041443A146382F91
:100640006BDC1F2F00DC6EE13A004846203AD040B8
:100650008446202F07D040224846D21B90400200FB
:100660004046104380464046421E90416246040088
:10067000144357E04A46024300D103E17A1E012F9A
:1006800000D193E1644CA74200D18AE117003BE717
:10069000634C721C224200D0E0E00A001A43002E94
:1006A00000D074E1002A00D1D0E14A46024300D0D4
:1006B000E3E14A07DB081343C90829E04A4602433D
:1006C00000D17DE17A1E012F00D1E0E0524CA7421B
:1006D00000D166E11700B2E710001F3BD840202987
:1006E00003D040235B1A9A401443631E9C410023AD
:1006F00000269A460443630700D055E75246E308B4
:100700005207134352463700D108434A97421FD03D
:1007100009037A050C0B520D64E742464C4614431C
:10072000621E9441E4189C429241524292468A448D
:1007300053461B02DFD5384B01369E4200D0B3E052
:100740003200002400234DE74A07DB081343C908A1
:100750001A000A4300D100E2802424030C4324033E
:100760002D4A240B3EE7200001F0A4FC03001833BF
:100770001F2B00DCF7E62200083882400024B34239
:1007800000DBFCE6F61A254B1A4092460AE7002FDA
:100790002BD0971B002E00D1B8E01F4CA24200D1F5
:1007A0001CE1802424042143382F00DD1EE11F2F8B
:1007B00000DD9EE120260C00F61B1800B340B4407B
:1007C000F8405E1EB341F94004431C43894444444D
:1007D00044459B415B424B449A461600A8E742467B
:1007E0004C461443621E9441A6E60D4C721C2242F4
:1007F00000D0A8E00A001A43002E00D00AE1002A27
:1008000000D15EE14A46024300D061E14A07DB08BD
:100810001343C9087CE7C046FF070000FFFF7FFFC6
:10082000FE070000CF4CA24200D1CEE08024240479
:100830002143382F5BDC1F2F00DDDCE020250C007E
:10084000ED1B1E00AB40AC40FE405D1EAB4134438F
:10085000F9401C434B465B1A99464CE04A461C1A29
:10086000881AA34292415242924602005046121AFE
:100870009246120278D45346234300D06AE6002100
:10088000002545E74A07DB081343C9083DE71C1864
:100890009C429B4149448A465B429A445346012606
:1008A0001B0200D427E702265246AF4B01211A4013
:1008B0001300214062080A43DC075B089A46144390
:1008C00070E63A004C46203AD440A446202F07D088
:1008D00040224846D21B90400200404610438046CA
:1008E0004046421E904162460400144324E61943E8
:1008F0000C00631E9C4143461C1BA0459B4149467E
:100900005B42CB1A9A46654616001BE60C001C4358
:1009100000D1C7E07C1E012F00D1F9E0914EB74213
:100920005CD0270040E720224C464046D21B944032
:10093000F840044340469040421E90414A46FA40E7
:1009400004438918EEE6874CA24200D1F9E6181854
:1009500098429B4149445B42CB18DC0740085B0846
:100960009A4616000443C6E64246D41AA045804182
:100970004B464042591A0B1A9A466546EAE54B46E1
:100980004A46C0085B0765460343D108BDE6002A16
:1009900000D08EE04B46034317D180210025090388
:1009A000DAE64A07DB081343C908D1E61C1A4A46AF
:1009B000A3429B41891A5B42CB1A9A460126C1E5A4
:1009C0004A07DB081343C9089FE64346D8084B464D
:1009D0004A465B0765460343D108B9E64346D80853
:1009E0004B464A465B070343D108B1E619430C0066
:1009F000631E9C41EBE63C000D00203CE540202FAF
:100A000003D04024E41BA1400B431C00631E9C4107
:100A10002C4370E7002AE1D04A460243C1D04A077E
:100A2000DB0813438022C9081203114208D048464C
:100A3000C408144204D143462100DB084207134393
:100A40005A0FDB005207DB08134381E64B46034392
:100A500000D114E74B464A46C0085B07654603438E
:100A6000D10855E6C41AA04580414B464042591A68
:100A70000B1A9A466546012664E51C1A4A46A342AB
:100A800080418A1A4042121A9246120249D54246C1
:100A9000D41AA04580414B464042591A0B1A9A4637
:100AA00065467FE54B464A46C0085B070343D108CD
:100AB0002BE64A46DB08024338D14A071343C908EC
:100AC00046E64B464A46C0085B070343D1081FE68B
:100AD0001C189C429B4149448A465B429A445346B7
:100AE0001B0200D407E652461F4B01261A409246CD
:100AF00001E63C000E00203CE640202F03D04024BD
:100B0000E41BA1400B431C00631E9C4134435EE682
:100B100043448342804149448A4640421C00824407
:100B2000BCE65346234300D1A9E6E4E54A07134354
:100B30008022C9081203114209D04846C408144251
:100B400005D1434665462100DB08420713435A0F8F
:100B5000DB00DB0852071343FAE50023014A1C00BF
:100B600040E5C046FF070000FFFF7FFFF0B5574696
:100B70004E464546DE46E0B50C031F004B0081465D
:100B80009246050085B0240B5B0DCE0F002B00D1E3
:100B900052E1D24A934200D16EE1420FE400144385
:100BA0008022120422439046CD4AC50093469B44BE
:100BB0000023994600933C037B005046240B5B0DB9
:100BC000FF0F002B00D11AE1C44A934200D15EE12D
:100BD000420FE4002243802424041443C04AC1008D
:100BE00094465A466344D31A9B46002033007B4008
:100BF0009A464B460F2B27D8BA4A9B00D3589F469C
:100C0000B246009B022B16D0032B00D187E2012BAA
:100C100000D0D5E00023002200251B0513435246D7
:100C2000D20713432800190005B0F0BCBB46B246FA
:100C3000A946A046F0BD00220025A84BEDE7BA4624
:100C4000A0460D000090DCE7444500D2C4E100D18D
:100C5000BFE101235B429C462E0040460025E34451
:100C600023020C0E1C431B0C994623040A021F0C82
:100C7000494600920197FFF7CDFA02007A430B0430
:100C8000310C804619438A4207D901235B429C46B6
:100C90000919E0448C4200D801E2881A4946FFF75E
:100CA000B9FA019A360442430904360C03000E4394
:100CB000B24204D93619013BB44200D8E9E1B01A76
:100CC0004246009E12041A43330C1F00110C90463A
:100CD000029313043204160C32001B0C5A43039681
:100CE0007B434E437943170CBC469B1963449E4299
:100CF00003D980267602B44661441E0C711816048E
:100D00001B04360C9E19884202D312D1B54210D270
:100D100043465A1E009B9C4665441F009D429B41D2
:100D20005B421B19C018844200D29EE100D199E1B8
:100D30009046AE1BB542AD41401A6D42401B844205
:100D400000D1D2E14946FFF765FA019A0B0442430C
:100D5000310C050019438A4200D96CE1881A4946D2
:100D6000FFF758FA019A360442430904360C03008F
:100D70000E43B24200D953E10398B61A02002D0483
:100D80001D43029F2B041B0C5A437B439C46290C9A
:100D90004843130C844463447943984203D9802028
:100DA000400284466144180C12041B04120C4018C3
:100DB0009B18864200D200E100D1FBE001231D43D5
:100DC000494B5B44002B00DCAAE06A0700D03DE100
:100DD000E9084246D20106D54246444B1A408023D8
:100DE0009046DB005B44424A934200DD23E74246E3
:100DF0005B05550752020D43120B5B0D0DE7514683
:100E0000214300D17CE0002C00D1FBE0200001F068
:100E100051F902000B3A1D239B1A52460100DA4099
:100E2000534608398B408C4019001443314B5844C9
:100E30009B4683440020D9E603002343984644D0D0
:100E4000002C00D1CFE0200001F034F901000200B5
:100E50000B391D235B1A49461000D94008388440DD
:100E60000B004D46234398468540234B9B1A9B46D7
:100E70000023994600939EE60200224390461DD12E
:100E800008229B46022300259146009393E6514693
:100E9000214309D102234A461A43184B91469C46E6
:100EA00000240220E344A1E603234A461A43134BDD
:100EB00091469C4651460320E34497E60C229B460C
:100EC0000323A0469146009375E604239946002328
:100ED0009B460133002500936DE6C046FF070000E6
:100EE00001FCFFFF783C0008FF030000FFFFFFFE4E
:100EF000FE070000F30300000DFCFFFF01F8FFFFF9
:100F00004A4601231A439146002401206EE600233D
:100F100080229A460025884B12037EE601256D4209
:100F20000122D21A382A00DD74E61F2A00DCBDE057
:100F30001F214942CB1A4146D9400B00202A04D038
:100F400041467E4A5A4491400D4329004A1E914130
:100F5000194307231D0000220D400B4200D1D0E0B1
:100F60000F2200230A40042A00D1C7E00A1D8A424A
:100F7000894149425B1811001A0200D4BEE00123E6
:100F80000022002549E6802243461203134208D07E
:100F9000144206D122431203BA460D00664B120BCF
:100FA0003BE68022434612031A431203B246624BC9
:100FB000120B32E6002B00D102E7A6196A1EA642E8
:100FC00000D289E0864200D29FE000D1AFE0150058
:100FD000F4E6A94200D93CE64346DE0758086B0810
:100FE0001E43ED073CE601F065F8010002001531F3
:100FF00020321C2900DC2CE74B46083883400025B2
:10100000984632E701F056F803001A0015322030F6
:101010001C2A00DCFFE65446083B00219C4005E703
:101020003619013BB44200D9A6E6B24200D8A3E685
:10103000831E3619A0E60919013D8C4200D98DE6C0
:101040008A4200D88AE6851E091987E60F222A40BF
:10105000042A00D1BCE6291DA942AD416D42C90850
:10106000A844B6E6AF4200D962E6814204D800D077
:101070005EE6AE4200D85BE602235B429C46009BE4
:10108000E0449C4665449D429B415B421B19C0184D
:101090004FE6B24200D812E6831E36190FE68A42A6
:1010A00000D8FAE5831E98460919F6E5244B280076
:1010B0005B4441469D409940D0406B1E9D41434654
:1010C00001432943D3404A0700D155E70F220A4084
:1010D000042A00D04AE74FE71500864200D06DE6AB
:1010E000009A9A4200D069E66AE6164B5B44002BF0
:1010F00000DC13E701250021A8446AE65D075B02D6
:101100001A0BC90800230D4387E50099023D4A00E8
:101110008A42BF417F423F19F6190092DDE78022E3
:10112000434612031A431203034B120B75E5009951
:101130009942EAD31500D3E7FF0700003E04000000
:101140001E040000FF030000F0B54E464546DE4693
:1011500057469046E0B517001A03120B0500844667
:1011600019480E034C0091465A00DB0F9B46360B84
:10117000640DC90F520D844219D0824210D0012053
:1011800094420ED14E450CD10120C44509D1594598
:1011900017D0002C05D130002843431E984100E0B1
:1011A0000120F0BCBB46B246A946A046F0BD3300C4
:1011B00001202B43F5D1A242F3D14B463B43F0D162
:1011C000E2E70020EDE7C046FF070000F0B5474624
:1011D000CE460400180016001B031B0B2D4D4A00C1
:1011E000994680B543000F03A446B0463F0B520D0D
:1011F000C90F5B0DC00FAA4221D0AB4213D0002A09
:1012000022D13C43002B02D14D462E4322D0002C4C
:1012100010D0814222D00220013908400138C0BCE0
:10122000B946B046F0BD4D462E4329D1002AF0D133
:101230003C43EED10028F2D101204042EFE73D00CF
:1012400025431DD19342EED0002BE2D14C462643DC
:10125000DFD1E0E70020002CE1D0DCE79A420ADC95
:10126000E8DB4F45D7D80ED000204F45D7D2002914
:10127000E2D00800D3E74342584140000138CEE7AE
:1012800002204042CBE7C445C5D80020C445C6D2A1
:10129000EDE7C046FF070000F0B54746CE46040024
:1012A000180016001B031B0B2C4D4A00994680B5F5
:1012B00043000F03A446B0463F0B520DC90F5B0D10
:1012C000C00FAA420DD0AB4210D0002A27D13C4318
:1012D000002B11D14D462E430ED10020002C15D0ED
:1012E0000EE03D00254310D1934218D14D462E43C8
:1012F0000BD1002A02D13C43002C0BD0814214D0E8
:10130000022001390840013800E00220C0BCB94683
:10131000B046F0BD0028F9D101204042F6E7002B8D
:10132000ECD14C462643E9D1EAE79A4204DD434238
:10133000584140000138E9E79A42EBDB4F45DFD8DE
:1013400006D000204F45E1D20029E5D00800DDE7B6
:10135000C445D5D80020C445D8D2F5E7FF07000022
:10136000F0B54546DE4657464E46E0B51F000B0336
:101370001B0B9B464D00CB0F04009146984687B04F
:101380006D0D00D1CDE1CE4B9D4200D1E9E15A4631
:10139000430FD2001343802212041A43C3009A461B
:1013A000C84B93469C4600230026654400933C03AB
:1013B0007B004846240B5B0DFF0F002B00D189E119
:1013C000BF4A934219D0420FE400224380242404F0
:1013D0001443BC4A00219446424663445B1901937E
:1013E000019B7A400133C000D2B202930A2E1CDD69
:1013F0003A000B2E5ED0474656E04946B04B21439B
:10140000EB18019300292AD18020022200012B0031
:1014100084461643424663447A40D2B202930A2E6F
:1014200000DD31E2002000240221022E26DC013EF4
:10143000012E52D802294CD0012900D018E10023F6
:10144000002400251B052343D2071343280019005D
:1014500007B0F0BCBB46B246A946A046F0BD80210D
:10146000032209012B008C461643424663447A400E
:10147000D2B202930A2E00DD28E203210125B540F5
:10148000AC46A6266346F600354033420BD1902683
:10149000B600334218D1B93EFF3E1E421DD0A346CE
:1014A0008246009100E0170000993A00022910D00E
:1014B0005C4650460329BFD180231B031C432403F1
:1014C00005007F4B240BBDE7802400227C4B2403C6
:1014D000B8E7002400257A4BB4E753461E04360CC7
:1014E0001F0C3300010C0004000C4343984603001A
:1014F0007B43994633004B439C4643460D001B0CEF
:101500009A467D43CC44D4440095E14504D98023D8
:101510005B0299464D44009563461B0C1D006346D3
:101520001B049C4643461B041B0C984663464344DD
:101530000393230C984633002404240C63439C46F5
:1015400023007B43994643465E435F434E446346D4
:10155000B2461E0C5644B14503D980235B0299461E
:101560004F44330C99463B004B4405936346AC46CD
:101570001F043F0C3604F619B444634604935B46DB
:101580001B0C9C465B461F043F0C3B0043439946A3
:10159000634643439A464B4660461B0C9B46484372
:1015A0007943514459448A4503D980235B029A46C2
:1015B00050440B0C9A464B461B041B0C99463B00AF
:1015C0006343090445464944994663465C436B437B
:1015D0009C464B461B0C98466F433F19474450446A
:1015E000BC4203D980235B029846C444049B009DFF
:1015F00098464544B542B641734298464B461E0450
:10160000059B3C049946360CA4194C44A1468346DC
:101610006E18C1448E428941CB445D4649426D18E3
:101620009C42A441C1459B41834580418D428941F3
:101630005B4264421C434042039B494201437002A7
:101640003F0C1843E419471EB84164186444F60D72
:1016500061023043EC0D6E020C433043C90100D4EB
:10166000F1E00121430801400B43E00718436408FF
:101670001549029B8C466344002B00DC97E0410730
:1016800009D00F210140042905D0011D814280416C
:10169000404224180800E10106D58021C9008C468B
:1016A0000A4B1C40029B634409498B4200DD10E752
:1016B0006107C50864025B050D43240B5B0DC1E6A1
:1016C000FF07000001FCFFFFFF030000FFFFFFFE1C
:1016D000FE0700004B46234359D0002C00D1A3E065
:1016E000200000F0E7FC010003000B391D22521A14
:1016F00049461800D1404A460838824084401000CC
:101700000C43744AEB1A9446424663440193019B8E
:101710007A4001330021D2B202930A2E00DD67E63F
:1017200083E65B4603439A462AD05B46002B6DD086
:10173000584600F0BFFC010003000B391D22521A6D
:10174000210018005D46D140083885400A008440D9
:101750002A439346A2465F4D0026ED1A00230093CC
:1017600025E65B4603439A4605D100239B46023398
:10177000082600931BE6032382460C26009316E6F8
:1017800000239B4601330426002500930FE64246C2
:10179000013301951E43019B7A4001330024002050
:1017A0000121D2B202930A2E00DD21E63DE601219D
:1017B000C91A382900DD42E61F2947DD1F2625000A
:1017C0007642F31ADD402B00202905D04249029DC4
:1017D0008C466544AC402043411E88411843072392
:1017E0001D000024054003424AD00F23002403407B
:1017F000042B42D0031D834280414042241818002C
:1018000023023AD50123002400251BE600F052FCF8
:1018100001000300153120331C298FDD0838002218
:1018200084409246A34696E700F044FC0100030082
:10183000153120331C2900DC58E702004C46083AD9
:10184000002094405DE7019B029311E7234B2600A3
:101850009C460300029DCB406544AE401E430300FE
:10186000AB40581E834130001843CC404307C7D0DB
:101870000F230340042BBDD1C2E765076402240B8C
:10188000C00800230543DDE5002502230F2E0CD1FF
:1018900080245B46240323420ED021420CD10C430A
:1018A00024033A000E4B240BCCE50B2E00D0A2E50E
:1018B0008B46AA460093F7E580245B4624031C432D
:1018C000240342465546064B240BBBE54D462100FA
:1018D0000323DBE70DFCFFFF3E0400001E040000B5
:1018E000FF070000F0B557464E464546DE46E0B5D8
:1018F0000D000400190010002B035B0A620F1A434D
:10190000E3000C03640A470F2743D04C6E00914656
:1019100083B04A00C0009846A246760DED0F520DE6
:10192000C90F0190A24200D1B9E0012461408B4669
:101930008D4200D18DE0B41AA446002C00DCB7E043
:10194000002A00D1CBE0C14A964200D186E1802234
:10195000120417436246382A00DDA4E11F2A00DD85
:101960001DE2614620223C00521A01009040944042
:10197000421E90416246A0466446D7404A46E14036
:101980004446D21B91460C4304431C1BA342924184
:101990004B4652429B1A9A4653461B0200D42BE1F7
:1019A00053465A02530A9A465346002B00D166E129
:1019B000504600F07FFB0300083B20222000D21A93
:1019C0005146D040994002009C400A439E4200DDAF
:1019D00064E19B1B591C1F2900DDFEE02023100041
:1019E00026005B1A9C409840CE40CA40631E9C4132
:1019F0003043924600260443630709D00F23234057
:101A0000042B05D0231DA342A4416442A2441C0020
:101A100053461B0200D4F2E08C4B01369E4200D1AB
:101A20000FE153468A49E4080B4019005B07234342
:101A300072054C02240B520D12052243ED072A4376
:101A40001800110003B0F0BCBB46B246A946A04640
:101A5000F0BDB41AA446002C59DD002A00D1B0E034
:101A6000564500D1FAE08022120417436246382A14
:101A700000DDD4E01F2A00DCC0E13900203AD1406B
:101A80006246202A06D064464022121B3C00944045
:101A900004430194019C621E94410C43C3E03C004A
:101AA00004432BD08B468D422ED06A4CA446B444BE
:101AB0006446002C5FD0941BA446002E00D020E189
:101AC0004C461C4300D1C7E161464C1E012900D1A0
:101AD00023E25E4DAC4500D1D8E1A4461AE13A00BC
:101AE000024300D1E4E02200013A012C00D1C3E11D
:101AF00056498C4200D1B1E094462BE70124614065
:101B00008B468D4200D016E752498C46B444644659
:101B1000002C00D1D3E0911B8C46002E00D15EE159
:101B20004A498A4200D1BEE180214C4609040C4357
:101B3000A1466146382900DDBAE11F2900DD27E210
:101B40002024641A4946A1401E0088466146A340ED
:101B5000CE4041465C1EA341314319430C0063460D
:101B60004946D9407F18241884429B415B429A46DB
:101B70001600BA445DE0384C721C224200D0DFE00F
:101B80004A461A43002E00D05CE1002A00D1CFE182
:101B90003A00024300D17FE11C1A4A46A342894120
:101BA000D21B4942521A9246120200D40AE2C41AC7
:101BB000A04280414B464042FF1A3B1A9A465D467E
:101BC0001AE73A00024373D02200013A012C00D1F7
:101BD000CBE0544542D0944648E710001F3BD84024
:101BE000202903D040235B1A9A401443631E9C4172
:101BF000002300269A460443630700D0FEE65246BF
:101C0000E308520713435246B446D2080F498C45A5
:101C10002AD01203140B62465205520D0CE73C0009
:101C20000443621E9441E4189C42924152424A4449
:101C3000924653461B02DFD5044B01369E4200D02C
:101C4000A0E0320000240023F6E6C046FF070000B3
:101C5000FFFF7FFF01F8FFFFFE070000DB084A4699
:101C6000520713434A46D2081900114300D1B5E187
:101C70008024240314432403D54A240BDCE62000EB
:101C800000F018FA030018331F2B00DC95E6220041
:101C90000838824000249E4200DC9AE6F61ACD4BBA
:101CA0001A409246A8E63C000443621E94416CE64A
:101CB0004A46DB08520713434A46D208A6E7C64CF9
:101CC000721C224200D0ACE04A461A43002E00D0DB
:101CD00005E1002A00D156E13A00024300D1DBE0E1
:101CE0001C189C429B414F44BA465B429A4453465F
:101CF0001B0200D480E75246B64B01261A4092469A
:101D00007AE7B34CA24200D1C0E080244D462404BF
:101D10002543A9466446382C53DC61461F2C00DD60
:101D2000CDE020251E002D1B4C46AB40AC40CE40E4
:101D30005D1EAB41344323434C46CC403F1B45E042
:101D40004A461C1AD11BA3429241524292460A00B3
:101D50005146521A9246120200D583E0534623435D
:101D600000D021E60022002553E71C189C429B412D
:101D70004F44BA465B429A44534601261B0200D4A4
:101D80003AE702265246934B01211A4013002140A4
:101D900062080A43DC075B089A4614432CE63900C4
:101DA000203AD1406246202A06D064464022121BC7
:101DB0003C00944004430194019C621E94410C43F6
:101DC000E3E5494619430B005C1EA341C41AA04237
:101DD0009B415B42FB1A9A465D461600DCE549468C
:101DE000194300D1AEE0614664460139012C00D1AF
:101DF000E0E0774CA44556D08C469AE66146202216
:101E00003C00521A944001009040A0466446421E95
:101E100090416246E1404446D7400C430443B944F4
:101E200001E76B498A4200D10CE7181898429B41A0
:101E30004F445B42FB18DC0740085B089A461600DB
:101E40000443D9E6002A00D081E03B0003431DD1C2
:101E50008022002512030BE7C0087B075D46034381
:101E6000FA08D3E6C41AA04280414B464042FF1A0A
:101E70003B1A9A465D4697E51C1A4A46A3429B4187
:101E8000D71B5B42FB1A9A46012685E5C0087B07F3
:101E90005D460343FA08E7E64A46DB085207134368
:101EA0004A46D208B5E6C0087B070343FA08DBE6DA
:101EB000494619430B00591E8B411C0053E64D4601
:101EC000203CE540202905D04024641A4946A14021
:101ED0000B43984643465C1EA3412B4376E7002AFA
:101EE000E1D03A00DB08024300D1B8E64A46520787
:101EF000802413434A462403D208224207D0FE0816
:101F0000264204D15D463200C3087F073B43590F88
:101F1000DB004907DB080B43A6E6C41AA042804158
:101F20004B464042FF1A3B1A9A465D46012633E56E
:101F30003B00034300D115E7C0087B075D46034320
:101F4000FA0866E6C0087B070343FA085EE63A0033
:101F5000DB08024300D182E64A465207802413433D
:101F60004A462403D208224207D0FE08264204D162
:101F70005D463200C3087F073B43590FDB00DB0897
:101F800049070B4370E6C0087B070343FA0840E6A5
:101F90004C462039CC406146202906D06646402177
:101FA000891B4E468E40334398464346591E8B410B
:101FB0001C43D8E51C18844280414F44BA46404235
:101FC0008244D9E65346234300D1CBE614E6C0460B
:101FD000FF070000FFFF7FFFFE0700000023014A0C
:101FE0001C0029E5FF0700000A0030B5134C530020
:101FF00009030500090B00205B0DD20FA34204DD8D
:102000000F48834202DD0F4BD01830BD80204003C3
:1020100001430D48C01A1F2808DD0C48C31AD940D7
:102020000B005842002AF0D11800EEE7084CC540DA
:10203000A446634499400B002B43F2E7FE030000E3
:102040001D040000FFFFFF7F3304000013040000A5
:10205000EDFBFFFF70B5002816D0C317C5185D4013
:10206000C40F280000F026F8114B1B1A0A2816DCB2
:1020700002002E00153296400B22121AD5405B0545
:102080002D032D0B5B0D03E000240023002500260B
:102090001B052B43E40723433000190070BD0B38A8
:1020A00085405B052D0300262D0B5B0DF0E7C04638
:1020B0001E0400001C2101231B04984201D3000CC4
:1020C00010391B0A984201D3000A08391B099842AB
:1020D00001D30009043902A2105C40187047C046C1
:1020E00004030202010101010000000000000000E1
:1020F00080B582B000AF0200FB1D1A70FB1D1B787B
:102100007F2B09D8FB1D1B781A001F231A40044B94
:10211000012191400A001A60C046BD4602B080BD50
:1021200000E100E090B583B000AF02003960FB1D14
:102130001A70FB1D1B787F2B28D82F4AFB1D1B789C
:102140005BB29B08C0339B009B58FA1D12781100AC
:1021500003220A40D200FF2191400A00D2431A40D4
:1021600011003B689B01FF221A40FB1D1B781800E1
:1021700003230340DB009A401F48FB1D1B785BB222
:102180009B080A43C0339B001A5031E01B4AFB1DD9
:102190001B7819000F230B40083B9B0806339B005C
:1021A000D31804331B68FA1D1278110003220A4069
:1021B000D200FF2191400A00D2431A4011003B682F
:1021C0009B01FF221A40FB1D1B78180003230340CC
:1021D000DB009A400948FB1D1B781C000F2323409D
:1021E000083B9B080A4306339B00C31804331A605C
:1021F000C046BD4603B090BD00E100E000ED00E048
:10220000B0B582B000AFE24B1A68E14B01210A433E
:102210001A60C046DE4B1B6804221340FAD0DC4B28
:10222000DA68DB4B01210A43DA6000F077FA00F04C
:102230004FFB00F0A3FB00F043FC00F073FB00F049
:102240000BFCD449D44AD54B0A604B60D4490022D8
:1022500000230A604B60D349002200230A604B60D0
:10226000D149D24AD24B0A604B60D24B01221A703C
:10227000D14BB4221A80D04BC8225A80CE4B0022B8
:102280009A80CE4B01221A70CD4B01221A70CD4B91
:1022900001221A70CC4B00221A708023DB051A68C9
:1022A0008023DB0501210A431A6002E0C74B5B6A09
:1022B0003B60C64B9B6904221340042BF6D0C44BF1
:1022C0001B7801225340DBB2002B2AD0B14B1C6893
:1022D0005D68B84B1B781800FFF7BCFE02000B00CE
:1022E00020002900FEF742FC02000B00100019003C
:1022F00000F0B0FC0022B74BFFF732F802000B00F1
:10230000100019000022B44BFEF7D0F802000B00B9
:102310008021CC0510001900FEF7AAF80300236401
:1023200004E08023DB05B922D2001A64A44B1B7899
:10233000002B1ED0A04B1B881A00C8239B1A6422B6
:102340005A438023DB05DA639B4B5B881A00C82362
:102350009B1A64225A438023DB055A63964B9B8861
:102360001A00C8239B1A64225A438023DB059A6310
:102370000BE08023DB05994ADA638023DB05974A6B
:102380005A638023DB05954A9A63904B9B69082228
:102390001340082B06D18D4BDA698C4B08210A4378
:1023A000DA61C0E0894B9B6904221340042B00D002
:1023B000B9E0864B5A6AFB1D1A70894B1B781900CD
:1023C000884BFA1D12785A54854B1B780133DAB2C8
:1023D000834B1A70824B1B78082B02D9804B00224A
:1023E0001A70FB1D1B78FE2B00D09CE07D4B1B78E8
:1023F000012B05D1714B01221A70754B00221A7006
:10240000784B1B78022B05D16C4B00221A70704B55
:1024100000221A70734B1B78032B05D1674B0022E7
:102420001A706B4B01221A706E4B1B78102B02D165
:10243000634B01221A706B4B1B78112B02D1604B3E
:1024400000221A70674B1B78122B12D1644B1B7839
:10245000042B0ED9634B5B789AB2574B1A80614BB1
:102460009B789AB2544B5A805E4BDB789AB2524BAF
:102470009A805C4B1B78202B02D1524B01221A70A0
:10248000584B1B78212B27D1554B1B78032B23D975
:102490004C4B00221A70534B5B781800FFF7DAFDA3
:1024A000514A524BFEF75CFF02000B0014001D0066
:1024B0004C4B9B781800FFF7CDFD4D4A4D4BFEF776
:1024C0004FFF02000B0020002900FDF7EFFF020084
:1024D0000B0034490A604B60424B1B78312B13D1FF
:1024E0003F4B1B78032B0FD93E4B5B781A006423BC
:1024F00053433C4A92789B181800FFF7ABFD02004B
:102500000B0029490A604B60364B1B78322B07D1F0
:10251000334B1B78022B03D9324B5A78254B1A7058
:102520002F4B00221A70274B1B78002B00D1C6E6D8
:10253000314B9A68304B04210A439A60C0462E4BB7
:102540001B6804221340FAD02B4B1A6CBB1D1A7067
:10255000BB1D1B781800FFF77DFD284A284BFEF7AE
:10256000FFFE02000B00100019000022254BFEF7B1
:10257000FDFA02000B0010001900234A234BFDF75F
:1025800095FF02000B0007490A604B6097E6C046C2
:102590000010024028000020D7A3703D0AD7124047
:1025A000400000203000002038000020FCA9F1D2BB
:1025B0004D62503F480000204C0000205200002097
:1025C000540000205500002060000020005400400E
:1025D0005300002000C0724000D09B40204E0000FD
:1025E00061000020580000207B14AE47E17A843F50
:1025F0002D431CEBE2361A3F00240140FA7E6ABCF0
:102600007493883F00007040B7EEE6A90EB9793F99
:1026100080B500AF234B1B69012213403ED0214BF4
:102620001A69204B01218A431A611F4B1B78002B2A
:1026300034D01E4B186859681D4B1A685B68FEF74A
:102640008FFE02000B00100019001A4B1A685B681D
:10265000FDF72CFF02000B0010001900164B1A6842
:102660005B68FDF723FF02000B0013490A604B6013
:10267000114B18685968114A114BFDF7E5FE031E0E
:1026800000D10BE00C49002200230A604B600D4B87
:102690005A690C4B802109024A405A61C046BD4626
:1026A00080BDC046000801405200002038000020D4
:1026B0004000002030000020280000201F85EB5142
:1026C000B81E19400008005080B500AFC046BD4696
:1026D00080BD000090B500AF0D4948698021C90157
:1026E000014012D00A49486909498024E401204385
:1026F00048610849086849680400220080242406CB
:102700004C40230004490A604B60C046BD4690BD62
:1027100000040140280000204000002080B500AFE8
:10272000654BDA6A644B07210A43DA62A023DB05B2
:102730001A68A023DB0503218A431A60A023DB0566
:102740001A68A023DB0502210A431A60A023DB05D7
:102750001A68A023DB050C218A431A60A023DB053D
:102760001A68A023DB0508210A431A60A023DB05B1
:102770001A68A023DB0530218A431A60A023DB05F9
:102780001A68A023DB0520210A431A60A023DB0579
:102790001A68A023DB05C0218A431A60A023DB0549
:1027A0001A68A023DB0580210A431A60A023DB05F9
:1027B0001A6AA023DB0502210A431A62A023DB0563
:1027C0001A6AA023DB0520210A431A62A023DB0535
:1027D0001A6AA023DB05802189000A431A62A0231C
:1027E000DB051A6AA023DB05802189010A431A62EE
:1027F000A023DB051A68A023DB05C02109010A43D9
:102800001A60A023DB05DA68A023DB052B490A4008
:10281000DA60A023DB051A68A023DB0528490A40FB
:102820001A60A023DB051A68A023DB0525490A43AB
:102830001A60A023DB051A6AA023DB05C0218902E8
:102840000A431A62A023DB055A6AA023DB05802114
:1028500049000A435A62A023DB055A68A023DB051E
:102860008221C9000A435A60A023DB059A68A0238D
:10287000DB05C02189000A439A60A023DB059A6822
:10288000A023DB05C02189030A439A600E4B1A6816
:102890000D4B0E490A401A600B4B1A680A4B920006
:1028A00092081A60084B1A68074B8021C9050A4331
:1028B0001A60C046BD4680BD00100240FFF3FFFF16
:1028C000FFFCCFFF0012200100080050FFFFFFCFE8
:1028D00080B500AF104B5A6B0F4B04210A435A636B
:1028E0000E4B0F229A620D4B0D4ADA620B4BDA68DF
:1028F0000A4B01210A43DA60084B1A68074B012191
:102900000A431A601420FFF7F3FB00211420FFF79D
:1029100009FCC046BD4680BD0010024000080140D1
:10292000E703000080B500AF124B5A6B114B8021BA
:1029300089000A435A63104B802212069A60C046EF
:102940000D4B9B68002BFBDB0B4BDA680A4B10210D
:102950000A43DA60084B9A6A074B20210A439A62BD
:10296000054B9A68044B01210A439A60C046BD4654
:1029700080BDC046001002400024014080B500AF79
:102980002F4B9A6B2E4B01210A439A638023DB0560
:102990000F229A628023DB052A4ADA628023DB0554
:1029A000294A5A638023DB05284A9A638023DB0582
:1029B000274ADA638023DB059A698023DB056021DF
:1029C0000A439A618023DB059A698023DB05C021D5
:1029D000C9010A439A618023DB05DA698023DB059C
:1029E00060210A43DA618023DB05DA698023DB0595
:1029F000C021C9010A43DA618023DB051A6A8023FA
:102A0000DB0514490A431A628023DB051A68802318
:102A1000DB0580210A431A608023DB055A69802385
:102A2000DB0501210A435A618023DB051A688023F4
:102A3000DB0501210A431A60C046BD4680BDC04681
:102A4000001002401F4E00008813000010270000F5
:102A5000983A00001111000080B500AF144B9A6B3A
:102A6000134B802189030A439A63124B1A68114B56
:102A700001218A431A600F4B0F4A1A610D4B1A68E5
:102A80000C4B01210A431A600A4B9A68094B0B4907
:102A90000A409A60074B80229A60064B9A68054B61
:102AA000802109020A439A60C046BD4680BDC046E7
:102AB00000100240005400405B3D3000FF7FFFFFEC
:102AC00080B500AF154B5A6B144B01210A435A6372
:102AD000134B5A69124B13490A405A61104B5A69F9
:102AE0000F4B802189000A435A610F4B9A680E4BA5
:102AF0008021C9010A439A600B4B1A680A4B802156
:102B0000C9010A431A600720FFF7F2FA02210720E1
:102B1000FFF708FBC046BD4680BDC046001002401E
:102B200000000140FFF0FFFF0004014080B500AF4E
:102B3000FEE780B500AFFEE780B500AFC046BD46FA
:102B400080BD80B500AFC046BD4680BD80B500AF3A
:102B500000F04AF8C046BD4680BD80B500AFC04613
:102B6000BD4680BD13488546FFF7F7FF1248016850
:102B7000090E124A914205D11148124901601248CA
:102B80001249016012481349134A002302E0D45845
:102B9000C4500433C4188C42F9D3104A104C00239B
:102BA00001E013600432A242FBD300F02FF8FFF7DC
:102BB00027FBFEE700080020040000001F000000C3
:102BC000341002400100000000000140000000003D
:102BD0000000002004000020983E000808000020AB
:102BE00068000020FEE7000080B500AF054B1B78B1
:102BF0001A00054B1B68D218034B1A60C046BD462D
:102C000080BDC046000000206400002070B5002692
:102C10000C4C0D4D641BA410A64209D1002601F0F6
:102C20001FF80A4C0A4D641BA410A64205D170BDC2
:102C3000B300EB5898470136EEE7B300EB589847DE
:102C40000136F2E7903E0008903E0008943E0008EE
:102C5000903E0008F0B51F4A4B0087B05B089342D6
:102C600006DC002300220093002300F0F7F806E0C2
:102C7000194A934205DD02000B00FEF733FE07B050
:102C8000F0BD02AA00F096F9049C059D03230340C1
:102C900002980399012B08D0022B0BD0002B13D1E3
:102CA0000133009322002B00DFE722002B0000F00D
:102CB00015F8E4E70123220000932B0000F0CEF882
:102CC00080231B06C918DAE722002B0000F006F863
:102CD000F6E7C046FB21E93FFFFFEF7FF0B587B085
:102CE000049205934B005B080093F923009A0700B8
:102CF0000E009B059A4204DAFFF776F9002800D10E
:102D000084E03A00330038003100FEF729FB00224E
:102D1000404B04000D00FEF723FB3F4A0290039155
:102D20003E4B20002900FEF71BFB3D4A3D4BFDF7C3
:102D3000BDFB22002B00FEF713FB3B4A3B4BFEF78B
:102D4000D1FD22002B00FEF70BFB394A394BFDF772
:102D5000ADFB22002B00FEF703FB374A374BFEF793
:102D6000C1FD22002B00FEF7FBFA354A354BFDF77B
:102D70009DFB22002B00FEF7F3FA22002B00FEF74A
:102D8000EFFA049A059B04000D0038003100FEF7AD
:102D9000E7FA02000B0020002900FEF7A3FD2A4BF2
:102DA000009A04000D009A420DDC02000B0002980C
:102DB0000399FEF797FD020000200B002349FEF760
:102DC00091FD07B0F0BD224B009A00269A421BDC11
:102DD0001300204A944663441F0032003B00002049
:102DE0001A49FEF77FFD32003B00009001910298E6
:102DF0000399FEF777FD22002B00FEF773FD02001A
:102E00000B0000980199DAE7134FE6E700200F491D
:102E1000D7E7C0460000E03FD43888BEE9FAA8BD35
:102E2000C4B1B4BD9EEE213EAD529C804F7E923E19
:102E30009015CB19A001FA3E7751C1166CC1563FCF
:102E40004C5555555555A53F3233D33F0000F03F03
:102E50000000E93F0000E0FF0000D23FF0B589B07C
:102E600002920393F9224B0007000E005B089205C3
:102E7000934203DAFFF7B8F800284CD03A00330049
:102E800038003100FEF76CFA04000D0002000B0060
:102E900038003100FEF764FA394A00900191394B4D
:102EA00020002900FEF75CFA374A384BFEF71AFD7E
:102EB00022002B00FEF754FA354A364BFDF7F6FA9E
:102EC00022002B00FEF74CFA334A344BFEF70AFD82
:102ED00022002B00FEF744FA314B324AFDF7E6FAA6
:102EE0000E9B04900591002B19D102000B002000CD
:102EF0002900FEF735FA2C4A2C4BFEF7F3FC009A1A
:102F0000019BFEF72DFA02000B0038003100FDF79F
:102F1000CDFA07000E003800310009B0F0BD0022E4
:102F200002980399224BFEF71BFA049A059B069020
:102F3000079100980199FEF713FA02000B0006981A
:102F40000799FEF7CFFC22002B00FEF709FA029A40
:102F5000039BFEF7C7FC144A04000D00009801997A
:102F6000124BFEF7FDF902000B0020002900FDF7CF
:102F70009DFA02000B0038003100FEF7B3FCC8E7F1
:102F80007CD5CF5A3AD9E53DEB9C2B8AE6E55A3EF3
:102F90007DFEB157E31DC73ED561C119A0012A3F8F
:102FA0001111813FA6F81011495555555555C53F8A
:102FB0000000E03FF0B54B0091B05B0802931700B2
:102FC000B64B029A04000D0009919A4209DC0200F6
:102FD0000B003A607B6000220023BA60FB60002691
:102FE00025E0AF4B029A9A4200DD6EE0AD4EAE4A4C
:102FF000002D35DD20002900AA4BFEF773FC029B53
:1030000004000D00B34215D0A84AA94BFEF76AFC94
:1030100002000B0020003A607B602900FEF762FC92
:10302000A24AA34BFEF75EFC0126B860F9603000AF
:1030300011B0F0BDD3229E4B5205FEF753FC9D4AC2
:103040009D4B04000D00FEF74DFC02000B0020001C
:103050003A607B602900FEF745FC964A964BE1E713
:10306000200029008F4BFDF721FA029B04000D0080
:10307000B34214D08D4A8E4BFDF718FA02000B00B4
:1030800020003A607B602900FEF72CFC874A884BC1
:10309000FDF70CFA0126B860F9607642C7E7D32243
:1030A000834B5205FDF702FA824A834B04000D0060
:1030B000FDF7FCF902000B0020003A607B6029005C
:1030C000FEF710FC7B4A7C4BE2E77C4B029A9A426B
:1030D00000DDD3E02000290000F05CF9784A794B4C
:1030E00004000D00FEF73CF90022774BFDF7DEF9F6
:1030F000FEF77AFF0600FEF7ADFF6B4A694B0690BC
:103100000791FEF72DF902000B0020002900FEF7C1
:10311000E9FB664A0490059106980799644BFEF70F
:103120001FF904000D001F2E0FDC684B721E920069
:10313000D358029A934208D00498059922002B0094
:10314000FEF7D0FB3860796012E022000498059900
:103150002B00FEF7C7FB029B1B150893089A4B0038
:103160005B0DD31A102B21DC02000B003A607B6050
:10317000049805997B683A680293029BFEF7B2FBBC
:1031800022002B00FEF7AEFB0B000200BA60FB60D2
:10319000099B002B00DB4AE780231B069C46029C10
:1031A000C91864447C60B860F96076E7D322069859
:1031B00007993F4B5205FEF7D3F804000D000200BB
:1031C0000B0004980599FEF78DFB02000B0002909E
:1031D000039104980599FEF785FB22002B00FEF76A
:1031E00081FB04000D0006980799324A324BFEF726
:1031F000B7F822002B00FEF775FB02000B0004005D
:103200000D0002980399FEF76DFB089A4B005B0DC9
:10321000D31A312B08DC02000B003A607B60029A63
:10322000039B04920593A3E7B82206980799224BC3
:103230009205FEF795F804000D0002000B000298BD
:103240000399FEF74FFB02000B00049005910298D2
:103250000399FEF747FB22002B00FEF743FB040017
:103260000D00069807991A4A1A4BFEF779F82200C2
:103270002B00FEF737FB04000D005DE7164B029AAA
:103280009A422BDD22002B0020002900FEF72AFBAA
:10329000B860F96038607960A1E6C046FB21E93F7B
:1032A0007BD90240FB21F93F000040543163621A90
:1032B00061B4D03D7370032E8A19A33BFB213941C1
:1032C00083C8C96D305FE43F0000E03FB83C0008B0
:1032D000C14920259A837B39FFFFEF7F029A2000A6
:1032E0001615294AB618029A3305D51A2900FEF791
:1032F0007BFEFEF7AFFE02000B00200029000A92C1
:103300000B93FEF7EFFA0022204BFEF729F80D0091
:103310000400FEF769FEFEF79DFE02000B00200090
:1033200029000C920D93FEF7DDFA0022174BFEF7F1
:1033300017F803250E900F910AAC002220696169ED
:1033400000230295083C013DFDF764F80028F4D104
:103350000F4B320001930223390000930AA8029B0D
:1033600000F01CF8099B0600002B00DB5FE68020C4
:1033700079683A6800060B18F9683A607B60BA68A9
:103380000B18BA60FB6088E6EAFBFFFF00007041A3
:10339000383D000849004B0819007047F0B5CB4C88
:1033A000A5441400A29A0C93C94B9200D3580D90D7
:1033B00008930C9B0691013B0B9300230093230081
:1033C000143304DB1821E01EFCF728FF0090009B5B
:1033D00024AE5A1C18235B4253431B190B9A0293C9
:1033E000009B9D1A2C00089B9F18631B9F420FDABD
:1033F0000C9E74AF0C9B089AF31A9A4230DB24ABF4
:10340000F4000022E41800230025049205931EE036
:10341000002C07DBA39AA300D058FEF71BFE03C6BF
:103420000134E2E700200021F9E70D9BE90059187B
:103430000868496822686368FDF792FF02000B0084
:1034400004980599FDF732F80490059101350B9B1E
:10345000083C9D42E9DD049B059C013618C7C9E77D
:10346000089B10AA9B009B180F93009BA39A9B009C
:10347000D3180E93089B0493049B74AADB00D31803
:103480001C685D6810AB00930A93049B0793079B2D
:10349000002B74DC20002900029A00F0EBFAFF23D5
:1034A00000229B0504000D00FDF75AFF00F04CFBC5
:1034B0000022884BFDF754FF02000B00200029007A
:1034C000FEF710FA0D000400FEF78EFD0A90FEF7DD
:1034D000C1FD0B00020029002000FEF703FA029B49
:1034E00006000F00002B74DD1820049B10AA013B7E
:1034F0009B009A5802990A9C401A110001416418D5
:103500008140521A10A95A50172302990A945B1A43
:103510001A410792079B002B6DDD00220A9B802039
:1035200001330A936C4B14009C4601254004049B14
:10353000934200DD9BE0029B002B05DD012B00D1B7
:10354000ABE0022B00D1B2E0079B022B53D132003B
:103550003B0000206149FEF7C5F906000F00002C72
:1035600049D0029A00205D4900F084FA02000B0065
:1035700030003900FEF7B6F906000F003BE00022EC
:10358000574B20002900FDF7EBFEFEF72DFDFEF75F
:1035900061FD0022534B06000F00FDF7E1FE020023
:1035A0000B0020002900FEF79DF9FEF71DFD0A9B88
:1035B00074AA01C30A93079B3000013B0793DB0009
:1035C000D31839001A685B68FCF770FF04000D001F
:1035D0005DE7029B002B07D1049B10AA013B9B00D7
:1035E0009B58DB15079395E700223F4BFCF736FF0E
:1035F000002839D107900022002330003900FCF761
:1036000009FF002800D1BCE00022049B013B00938D
:1036100008998B4253DA002A00D198E0029B10AA45
:10362000183B0293009B9B009B58002B00D1A4E009
:103630000020029A294900F01DFA06000F00009CA4
:10364000002C00DBDCE0294B009C0B93002C00DA03
:103650000FE1E60074ABF3180293009B00261B1BDE
:10366000002700250493F6E00223079355E7009B0B
:103670001B68002C0BD1002B03D0009CC31A2360C5
:103680002B00009C0132043400941C004FE761467B
:10369000CB1A00990B602300F3E7049B10AA013BAF
:1036A0009B009A585202520A10A95A504CE7049BA8
:1036B00010AA013B9B009A589202920AF4E79900E3
:1036C00010A80958013B0A43A2E7C0468CFDFFFF42
:1036D000803E000800002040FFFFFF000000F03F98
:1036E0000000703E000070410000E03F403E0008D6
:1036F00001330F999A0052428A58002AF8D0049A4E
:103700000C99571C5418E40024AA1419049AD318CD
:103710000493049BBB4200DAAEE60E9ABB00D0587D
:10372000FEF798FC0022002326000025206061603F
:10373000009201930B9B9D420BDDFB0074AAD318F2
:1037400001370099019A083419605A60E1E70123B2
:10375000CFE70D9BE900591808684968326873681B
:10376000FDF7FEFD02000B0000980199FCF79EFE9C
:10377000013500900191083EDCE7009B013B00937E
:103780004CE7029B30005A42390000F073F90022E6
:10379000B64B04000D00FCF761FE002825D0002286
:1037A000B34B20002900FDF7DBFDFEF71DFC049B59
:1037B00006009F00FEF74EFC0022AC4BFDF7D0FD4B
:1037C00002000B0020002900FEF78CF8FEF70CFC2D
:1037D00010ABD851049B10AA01330093029B1833FD
:1037E0000293009B9B009E5022E7049B200029002F
:1037F0009E00FEF7F9FB10AB9851049B009317E76E
:10380000E50074AB10AA5D19A3009858FEF722FCDE
:1038100032003B00FDF7A4FD002228606960944B54
:1038200030003900FDF79CFD013C06000F0007E762
:103830000B9B0298E90059180CC802900868496867
:10384000FDF78EFD02000B0030003900FCF72EFE64
:1038500006000F000135089B9D4202DC049B9D423F
:10386000E6DD049B4CAADB00D3181E605F60013CC0
:10387000ECE6A29B022B0EDC002B00DD8CE0002589
:103880002C00AB4246D007200A9B034018009D2322
:103890009B009D44F0BDA29B032BF4D1009B4CAA3E
:1038A000DB00D4182500009B0293029B083D002BEF
:1038B00000DD7FE0009D083C012D00DD9CE0002440
:1038C0002100009B012B00DDB4E0079B4C9F4D9E27
:1038D0004E9D4F98002B00D0BAE033003A00069E70
:1038E000326073602A000300B260F36022000B00B4
:1038F00032617361C7E7009B4CAADB00D318280034
:103900001A685B682100FCF7D1FD05000C00009BE4
:10391000013B0093009B002BEDDA079B002B02D0AC
:1039200080231B06E4182A00230006990A604B60D6
:10393000A9E7E3004CAAD31830001A685B68290095
:10394000FCF7B4FD06000D00013C002CF1DA079BEA
:103950002900002B02D080231B06E91832000B003F
:10396000069901240A604B604C984D992B00FDF795
:10397000B9FF07000E004CAD009B0835A3420FDADB
:10398000079B002B02D080231B06F6183A00330059
:1039900006998A60CB6076E70026009C3500D4E764
:1039A00038002A686B683100FCF780FD013407009D
:1039B0000E00E1E7029BAE68EF68013B02932A68C4
:1039C0006B68049205930498059932003B00FCF75C
:1039D0006DFD02000B000890099104980599FDF710
:1039E00081FF32003B00FCF761FD089A099BA8604B
:1039F000E9602A606B6058E726686768A268E36838
:103A00003000390002920393FCF750FD02000B00D6
:103A10000490059130003900FDF764FF029A039B82
:103A2000FCF744FD049A059BA060E160226063609E
:103A3000013D40E7009B4CAADB00D31820001A6828
:103A40005B68FCF733FD009B0400013B009338E703
:103A5000069B069A1F6080231B06F618C018C9181B
:103A600056609560D060146151610CE700007041B0
:103A70000000703E70B514004A000B00520D0FD1CB
:103A80004B005B08034311D0224B0022FDF768FC7A
:103A9000214B9C420BDA214A214BFDF761FC05E0EA
:103AA000204DAA4207D10200FCF700FD70BD0B00BB
:103AB0004A00520D363A1C4DAC420ADD1B4C1C4DDF
:103AC000002901DA194C1B4D184A194B2000290016
:103AD000E3E7A218184CA242F0DC002A05DD174CDF
:103AE0001205234013431900E0E71400353408DAC7
:103AF0000A4C0B4D002901DA084C114D074A084BBE
:103B0000E4E70E4C3632234012051A4311000D4BE8
:103B10000022C2E700005043B03CFFFF59F3F8C257
:103B20001F6EA501FF07000050C300009C750088B0
:103B30003CE4377E3CE437FEFE070000FFFF0F80C9
:103B40001F6EA5810000903CF7B54B003E4A5B0D0F
:103B50009F1884460E000C0005000190132F34DCE2
:103B6000002F16DA394A3A4B60463100FCF79EFCCA
:103B700000220023FCF768FC002807D0002E5DDA45
:103B80007400640825435CD00025324CAC46260006
:103B900029E0314B3B4100930B40034323D02B4A98
:103BA0002B4B60463100FCF781FC00220023FCF720
:103BB0004BFC0028EAD0002E03DA80235B033B4154
:103BC000F418009B00259C43E0E7332F0FDD802392
:103BD000DB009F4207D102000B0060463100FCF77A
:103BE00065FC84460E006046310003B0F0BD1B4A00
:103BF0009B1801225242DA4000920242F3D0134A4B
:103C0000134B60463100FCF751FC00220023FCF707
:103C10001BFC0028BAD0002E02DA142F03D1013485
:103C2000009B9D43B2E734220123D21B9340ED1841
:103C3000019B9D429B415B42F418F1E700252C005B
:103C4000A4E780242406A1E701FCFFFF9C750088FF
:103C50003CE4377E0000F0BFFFFF0F00EDFBFFFFED
:103C6000F8B5C046F8BC08BC9E467047F8B5C046DB
:083C7000F8BC08BC9E46704739
:103C7800480C0008360C0008140C00083E0C00081C
:103C8800140C00080E0F0008140C00083E0C000865
:103C9800360C0008360C00080E0F00083E0C000811
:103CA800000C0008000C0008000C0008860F000833
:103CB800FB21F93FFB2109407CD91240FB21194027
:103CC8007A6A1F407CD92240BBFD2540FB21294050
:103CD8003A462C407A6A2F405C4731407CD93240C2
:103CE8009C6B3440BBFD3540DB8F3740FB213940AE
:103CF8001BB43A403A463C405AD83D407A6A3F4065
:103D08004C7E40405C4741406C1042407CD9424068
:103D18008CA243409C6B4440AC344540BBFD4540BD
:103D2800CBC64640DB8F4740EB584840FB21494013
:103D380083F9A200444E6E00FC291500D1572700D4
:103D4800DD34F50062DBC0003C99950041904300EA
:103D58006351FE00BBDEAB00B761C5003A6E2400BC
:103D6800D24D42004906E00009EA2E001C92D1001B
:103D7800EB1DFE0029B11C00E83EA700F5358200C6
:103D880044BB2E009CE98400B4267000417E5F008D
:103D9800D6913900538339009CF439008B5F840035
:103DA80028F9BD00F81F3B00DEFF97000F980500BB
:103DB800112FEF000A5A8B006D1F6D00CF7E360061
:103DC80009CB2700464FB7009E663F002DEA5F00EB
:103DD800BA277500E5EBC7003D7BF100F73907000E
:103DE80092528A00FB6BEA001FB15F00085D8D00EC
:103DF800300356007BFC4600F0AB6B0020BCCF00C4
:103E080036F49A00E3A91D005E619100081BE600E4
:103E180085996500A0145F008D40680080D8FF0078
:103E280027734D0006063100CA561500C9A873004D
:103E38007BE260006B8CC00000000040FB21F93F72
:103E4800000000002D44743E000000809846F83CB5
:103E58000000006051CC783B00000080831BF039E3
:103E68000000004020257A38000000802282E336D6
:103E7800000000001DF36935020000000300000087
:083E8800040000000600000028
:043E9000E90000083D
:043E9400C100000861
:043E98000100000025
:0400000508002B655F
:00000001FF
