:020000040800F2
:100000000008002081040008490400084F0400088B
:1000100000000000000000000000000000000000E0
:10002000000000000000000000000000550400086F
:1000300000000000000000005F04000869040008E0
:100040000105000800000000010500080105000886
:100050000105000801050008010500080105000868
:100060000000000001050008010500080105000866
:100070000105000801050008000000000105000856
:100080000000000000000000000000000000000070
:10009000010500080000000000000000B503000892
:1000A0000000000001050008000000000000000042
:1000B0000105000801050008000000000000000024
:1000C00010B5064C2378002B07D1054B002B02D02E
:1000D000044800E000BF0123237010BD040000208D
:1000E0000000000070050008044B10B5002B03D081
:1000F0000349044800E000BF10BDC04600000000F6
:10010000080000207005000880B582B000AF020032
:10011000FB1D1A70FB1D1B787F2B09D8FB1D1B785C
:100120001A001F231A40044B012191400A001A6053
:10013000C046BD4602B080BD00E100E090B583B08E
:1001400000AF02003960FB1D1A70FB1D1B787F2B6E
:1001500028D82F4AFB1D1B785BB29B08C0339B003D
:100160009B58FA1D1278110003220A40D200FF2189
:1001700091400A00D2431A4011003B689B01FF22C4
:100180001A40FB1D1B78180003230340DB009A4034
:100190001F48FB1D1B785BB29B080A43C0339B00C2
:1001A0001A5031E01B4AFB1D1B7819000F230B402E
:1001B000083B9B0806339B00D31804331B68FA1DC9
:1001C0001278110003220A40D200FF2191400A0058
:1001D000D2431A4011003B689B01FF221A40FB1DCD
:1001E0001B78180003230340DB009A400948FB1DDD
:1001F0001B781C000F232340083B9B080A4306334F
:100200009B00C31804331A60C046BD4603B090BDBE
:1002100000E100E000ED00E080B582B000AF0E4BE1
:100220001A680D4B01210A431A60C0460A4B1B682D
:1002300004221340FAD0084BDA68074B01210A4325
:10024000DA6000F053F800F00BF8044B00221A704B
:1002500000237B60FCE7C04600100240280000201D
:1002600080B500AF1D4B9A6B1C4B802189030A435C
:100270009A631B4B1A681A4B01218A431A60184B68
:10028000184A1A61164B1A68154B01210A431A6065
:10029000134B9A68124B14490A409A60104B302253
:1002A0009A600F4B9A680E4B802109020A439A60AC
:1002B0000B4B1A680A4B04210A431A60084B1A6850
:1002C000074B08210A431A601720FFF71DFF002182
:1002D0001720FFF733FFC046BD4680BD0010024027
:1002E000005400405B3D3000FF7FFFFF80B500AF52
:1002F0002C4BDA6A2B4B01210A43DA62A023DB057F
:100300001A68A023DB0528490A401A60A023DB05F0
:100310001A68A023DB0525490A431A60A023DB05E0
:100320001A6AA023DB05C02189020A431A62A023AE
:10033000DB055A6AA023DB05802149000A435A6283
:10034000A023DB055A68A023DB058221C9000A43EC
:100350005A60A023DB059A68A023DB05C021890031
:100360000A439A60A023DB059A68A023DB05C0211D
:1003700089030A439A600B4BDA6A0A4B04210A4349
:10038000DA620B4B1A680A4B920092081A60084B0B
:100390001A68074B8021C9050A431A60C046BD464A
:1003A00080BDC04600100240FFFCCFFF00122001BC
:1003B0000008005080B582B000AF1E4B9B697B6087
:1003C0007B68082213400DD01B4B5A691A4B8021C1
:1003D00009024A405A61174BDA69164B08210A4351
:1003E000DA6118E07B680422134014D0114B596A7B
:1003F000124B1B781A00C9B2114B99540F4B1B7842
:100400000133DAB20D4B1A700C4B1B78082B02D952
:100410000A4B00221A70074B5B6AFE2B05D1074B73
:1004200000221A70074B01221A70C046BD4602B066
:1004300080BDC04600540040000800502900002044
:10044000200000202800002080B500AFFEE780B526
:1004500000AFFEE780B500AFC046BD4680BD80B5A9
:1004600000AFC046BD4680BD80B500AF00F04AF881
:10047000C046BD4680BD80B500AFC046BD4680BD0C
:1004800013488546FFF7F7FF12480168090E124A24
:10049000914205D111481249016012481249016088
:1004A00012481349134A002302E0D458C4500433BD
:1004B000C4188C42F9D3104A104C002301E0136099
:1004C0000432A242FBD300F02FF8FFF7A5FEFEE7AF
:1004D00000080020040000001F000000341002404B
:1004E00001000000000001400000000000000020AA
:1004F00004000020900500080400002030000020C7
:10050000FEE7000080B500AF054B1B781A00054BD5
:100510001B68D218034B1A60C046BD4680BDC0465A
:10052000000000202C00002070B500260C4C0D4D62
:10053000641BA410A64209D1002600F019F80A4C49
:100540000A4D641BA410A64205D170BDB300EB5840
:1005500098470136EEE7B300EB5898470136F2E7CB
:1005600088050008880500088C0500088805000833
:10057000F8B5C046F8BC08BC9E467047F8B5C04602
:08058000F8BC08BC9E46704760
:04058800E90000087E
:04058C00C1000008A2
:040590000100000066
:04000005080004816A
:00000001FF
